:1000000033C000004DC000004BC0000049C00000DC
:1000100047C0000045C0000043C0000041C00000D0
:100020003FC000003DC000003BC0000039C00000E0
:1000300037C0000035C0000033C0000031C00000F0
:100040002FC000002DC000002BC0000029C0000000
:1000500027C0000025C0000023C0000021C0000010
:100060001FC000001DC0000011241FBECFEFD8E04C
:10007000DEBFCDBF11E0A0E0B1E0E6EEF1E102C0ED
:1000800005900D92AA3AB107D9F722E0AAEAB1E0A9
:1000900001C01D92A532B207E1F709D40C94F10812
:1000A000AFCF04C0615071098109910961157105D3
:1000B00081059105B9F708958EBD00000DB407FEC6
:1000C000FDCF8EB50895CF93C82F20E041E060E2C8
:1000D00071EA87E090E041D22A988C2F8068ECDFAB
:1000E00080E0EADF2A9ACF91089583EFECDF8170F8
:1000F00090E00895CF93DF93D82FC62F20E041E002
:1001000060E271EA87E090E028D22A988D2F8F77FD
:10011000D3DF8C2FD1DF2A9ADF91CF910895AF9250
:10012000BF92CF92DF92EF92FF920F931F93CF93E4
:10013000DF93C4E0D1E090E09D838C8370E079830D
:10014000688350E05B834A830F2EF0E0AF2EF1E02E
:10015000BF2EF02D30E0F501338322830F2EFAE01D
:10016000CF2EF1E0DF2EF02D10E0F6011383028395
:10017000F12CF182E08260E084EFBCDFF501628166
:1001800082EFB8DFF60160817181660F771F62959B
:100190007295707F7627607F762782819381880FA2
:1001A000991F880F991F682B792B86819781682B5F
:1001B000792B85EF9FDF68817981660F771F6295C4
:1001C0007295707F7627607F76278A819B81880F62
:1001D000991F880F991F682B792B8C819D81682B23
:1001E000792B84EF87DFDF91CF911F910F91FF90E3
:1001F000EF90DF90CF90BF90AF900895CF93DF93B3
:10020000C82F20E041E060E271EA87E090E0A5D1EC
:100210002A988C2F806850DF80E04EDFD82F80E056
:100220004BDFC82F2A9A7BD18C2F90E09D2BDF913A
:10023000CF910895E3DF98278927982708951F9382
:10024000CF93DF9388E8F6DFCEEFD1E09983888300
:100250008AE8F0DF9B838A838CE8ECDF9D838C83C4
:100260008EE8E8DF9F838E8380E9E4DF99878887C3
:1002700082E9E0DF9B878A8784E9DCDF9D878C87C2
:1002800086E9D8DF9F878E8788E9D4DF998B888BB2
:100290008AE9D0DF9B8B8A8B8CE9CCDF9D8B8C8BA2
:1002A0008EE9C8DF9F8B8E8B81EA0DDF888F81EE10
:1002B000C1DF9A8F898F83EE06DF8B8F84EE03DF99
:1002C000182F85EE00DF90E11902900111248F7044
:1002D000282B3D8F2C8F86EEF6DE182F85EEF3DE71
:1002E00090E119029001112482958F70282B3F8F85
:1002F0002E8F87EEE8DE88A3DF91CF911F910895BE
:10030000EF920F9366EB80EEF5DE63E876E080E037
:1003100090E0C7DE05C06BE171E480E090E0C1DEF3
:10032000E4DE0197C1F78BDFE12C00E025E045E03A
:1003300065E083E0F4DE66E372E880E090E0B1DE41
:1003400081E090E00F91EF900895CF92DF92EF92CD
:10035000FF92CF93C82F20E041E060E271EA87E08E
:1003600090E0FBD02A988C2F8068A6DE80E0A4DE87
:10037000C82ED12CE12CF12CFE2CED2CDC2CCC2425
:1003800080E09ADEC82AFE2CED2CDC2CCC2480E008
:1003900093DEC82A2A9AC3D0C701B601CF91FF9035
:1003A000EF90DF90CF9008958F929F92AF92BF927F
:1003B000CF92DF92EF92FF928AEFC7DF6B017C0151
:1003C000C114D10480E8E806F10409F48CC0D70117
:1003D000C601689413F8B595A795979587951694D7
:1003E000D1F7BF93AF939F938F9380E291E09F9358
:1003F0008F93DCD3EEEFF1E080819181A0E0B0E05B
:100400008D2C9E2CAF2CBB24A7FCBA94881A990A79
:10041000AA0ABB0AB701A601689416F875956795F4
:10042000579547951694D1F7880F991FAA1FBB1FA0
:100430009A01AB01281B390B4A0B5B0BA281B381DC
:100440006ED36B017C010B2EBBE0F594E794D7943F
:10045000C794BA95D1F7B02DA5019401C501B40197
:1004600045D39B01AC01012E1CE05595479537956E
:1004700027951A95D1F7102DA481B58150D3DC01B1
:10048000CB01072E7EE0B595A795979587957A9530
:10049000D1F7702D8C0D9D1DAE1DBF1D6C017D0112
:1004A000CC0CDD1CEE1CFF1CCC0CDD1CEE1CFF1C60
:1004B0008C0D9D1DAE1DBF1D80589F4FAF4FBF4F70
:1004C000692F7A2F8B2F992787FD9A9583D220E069
:1004D00030E048EC52E414D20F900F900F900F9040
:1004E0000F900F9004C060E070E080E89FEBFF90F9
:1004F000EF90DF90CF90BF90AF909F908F90089536
:100500002A9A229A8CB580618CBD8CB580648CBD92
:10051000259A239A1092AB011092AA010895809116
:10052000AA019091AB01009739F001979093AB012C
:100530008093AA01892B19F48CB58F7B8CBD08950B
:1005400087E0089591E089272CB5982F96959370B0
:10055000922B9CBD81708DBD0895CF93DF93862F24
:10056000D42FC22F9CB590649CBD9CB590619CBD5E
:10057000E7DFE8DF8CB52C2F2C70282B2CBD8CB539
:10058000DD2311F090E001C090E2892B8CBD8091B9
:10059000AA019091AB0101969093AB018093AA01BF
:1005A000DF91CF910895CF93C82F873061F42091C8
:1005B00023023091240247E050E061E070E08BE2DA
:1005C00091E0C2D20BC08A3011F48DE0ECDFE0EC98
:1005D000F0E0808185FFFDCFC093C60080E090E011
:1005E000CF9108956F927F928F929F92AF92BF9218
:1005F000CF92DF92EF92FF920F931F93CF93DF93EF
:100600002091FC013091FD01232B09F0CCC08C011D
:100610000F2EFCEA8F2EF1E09F2EF02DC0ECD0E0E3
:100620000F2EF6ECCF2ED12CF02D54010F2EFBEA1D
:100630006F2EF1E07F2EF02D88818823ECF78881E2
:1006400084FDC4C0888183FDC4C0F60180818D30E3
:1006500011F08A3061F48AE0F4018083B801A3DFED
:100660008CEA91E09093FD018093FC019CC089305D
:1006700039F090EE980F9F3520F0803AA8F001C035
:1006800080E2FBEF8F16F1E09F0621F4B80187E0CE
:100690008ADFD2CF74019FEFE91AF90AF40180834F
:1006A000B80181DF4701C8CF8231B9F130F483301E
:1006B00009F492C08830E9F0BFCF873129F08F3735
:1006C000C1F0853179F0B8CFFCEA8F16F1E09F06D2
:1006D00009F008F4B1CFF40131978081803209F03C
:1006E0004AC0AACF8CEA881681E0980609F070F516
:1006F000A3CF9CEA891691E0990609F008F49CCFF3
:10070000B80188E050DFB80180E24DDFB80188E031
:100710004ADFE1E08E1A91088FCFB8018DE043DF08
:10072000FCEA8F16F1E09F0609F008F485CF0F2E42
:10073000FCEAEF2EF1E0FF2EF02DB801F7018191D8
:100740007F0131DF8E149F04C1F776CFB80188E0B6
:100750002ADFB80180E227DFB80188E024DFF1E07A
:100760008F1A91088CEA881681E0980679F7F301D0
:1007700031964F0161CF7401F1E0EF1AF108B80131
:1007800088E011DFB80180E20EDFB80188E00BDFFE
:100790004701AE14BF0409F44FCFF70182917F01E6
:1007A000803269F749CFE091FC01F091FD01CF0162
:1007B00001969093FD018093FC0180818A3021F4A1
:1007C0001092FD011092FC0190E008C08EEF9FEFA7
:1007D00005C08FEF9FEF02C08FEF9FEFDF91CF91AA
:1007E0001F910F91FF90EF90DF90CF90BF90AF904F
:1007F0009F908F907F906F9008951092C50080E138
:100800008093C40088E18093C10086E08093C20099
:10081000EFE1F2E082E191E0918380839383828330
:10082000089595B184B180628F7784B9892F806AE9
:1008300085B9089504C06150710981099109611554
:10084000710581059105B9F708950F931F93CF9313
:10085000DF93CDB7DEB7E2970FB6F894DEBF0FBED9
:10086000CDBFA2DD9F938F937F936F9383E391E03E
:100870009F938F938E010F5F1F4F1F930F93D9D1BB
:100880001F930F9386E391E09F938F938FD10FB6C1
:10089000F894DEBF0FBECDBFE2960FB6F894DEBF70
:1008A0000FBECDBFDF91CF911F910F910895B9DF9A
:1008B000A4DF26DE88E491E08CD180ED04DCC82F33
:1008C0001F928F9385E691E09F938F936FD10F9046
:1008D0000F900F900F90C83591F412DD019721F41D
:1008E00087E791E076D104C08BE891E072D1FFCF29
:1008F000ACDF6BE67EE689E190E09CDFF9CFFFCFCD
:100900000CD0BAC0B2D040F0A9D030F021F45F3F93
:1009100019F09BC05111E4C09EC0BFD098F3992339
:10092000C9F35523B1F3951B550BBB27AA276217B3
:100930007307840738F09F5F5F4F220F331F441FF8
:10094000AA1FA9F333D00E2E3AF0E0E830D0915030
:100950005040E695001CCAF729D0FE2F27D0660F1D
:10096000771F881FBB1F261737074807AB07B0E85C
:1009700009F0BB0B802DBF01FF2793585F4F2AF072
:100980009E3F510568F061C0ABC05F3FECF3983EFD
:10099000DCF3869577956795B795F7959F5FC9F7CF
:1009A000880F911D9695879597F90895E1E0660F58
:1009B000771F881FBB1F621773078407BA0720F0D1
:1009C000621B730B840BBA0BEE1F88F7E09508953A
:1009D000E89409C097FB3EF49095809570956195D9
:1009E0007F4F8F4F9F4F9923A9F0F92F96E9BB278F
:1009F0009395F695879577956795B795F111F8CF0B
:100A0000FAF4BB0F11F460FF1BC06F5F7F4F8F4F75
:100A10009F4F16C0882311F096E911C0772321F06B
:100A20009EE8872F762F05C0662371F096E8862F03
:100A300070E060E02AF09A95660F771F881FDAF75A
:100A4000880F9695879597F9089597F99F6780E89D
:100A500070E060E008959FEF80EC089500240A9410
:100A60001616170618060906089500240A94121689
:100A70001306140605060895092E0394000C11F4BC
:100A8000882352F0BB0F40F4BF2B11F460FF04C069
:100A90006F5F7F4F8F4F9F4F089557FD9058440FC2
:100AA000551F59F05F3F71F04795880F97FB991FCD
:100AB00061F09F3F79F0879508951216130614068A
:100AC000551FF2CF4695F1DF08C016161706180617
:100AD000991FF1CF86957105610508940895E894F2
:100AE000BB2766277727CB0197F90895DB018F9302
:100AF0009F930BD0BF91AF91A29F800D911DA39F9B
:100B0000900DB29F900D112408950FD0A59F900DC8
:100B1000B49F900DA49F800D911D11240895B7FFDF
:100B2000F4CFF3DF821B930B0895A29FB001B39F14
:100B3000C001A39F700D811D1124911DB29F700DE6
:100B4000811D1124911D0895A0E0B0E0E9EAF5E0CF
:100B500017C35B014A017901D90113962C9121FF3A
:100B60001DC0C0E0D0E0C815D905D9F08C016C01DA
:100B7000CA0CDB1CC8010C151D0571F00F5F1F4F5F
:100B8000D7011896ED91FC911997B701DC018C9172
:100B90000995892B79F305C02196E5CF80E090E097
:100BA00001C0CE01CDB7DEB7ECE006C3A0E0B0E0F7
:100BB000EBEDF5E0EFC2AE014B5F5F4FFA016191E3
:100BC0007191AF01809121029091220251D0E2E017
:100BD000FDC20F931F93CF93DF93E0912102F09119
:100BE0002202238121FF1BC08C01D0E0C0E0F8016C
:100BF00081918F016091210270912202DB01189690
:100C0000ED91FC911997882331F00995892B79F39F
:100C1000DFEFCFEFECCF8AE00995892B19F08FEF4A
:100C20009FEF02C08D2F9C2FDF91CF911F910F91CD
:100C30000895AEE0B0E0EEE1F6E0AAC20D891E89AB
:100C400086E08C831A8309838FEF9FE79E838D83D1
:100C5000AE01475E5F4F6F89788DCE01019608D057
:100C6000EF81F885E00FF11F10822E96E4E0ACC210
:100C7000ABE0B0E0EDE3F6E07DC26C017B018A0100
:100C8000FC0117821682838181FFBFC1CE010196CC
:100C90003C01F6019381F70193FD859193FF8191CA
:100CA0007F01882309F4ADC1853239F493FD859124
:100CB00093FF81917F01853221F4B60190E0C0D18C
:100CC000E8CF912C212C312CFFE1F315D8F08B3299
:100CD00079F038F4803279F08332A1F4232D206149
:100CE0001DC08D3261F0803369F4232D216016C060
:100CF000832D8260382EE32DE4603E2E2AC0F32D32
:100D0000F8601DC037FC2DC020ED280F2A3040F0C0
:100D10008E32B9F436FC75C1232D2064322E19C0F1
:100D200036FE06C08AE0989E200D1124922E11C036
:100D3000EAE02E9E200D1124222EF32DF0623F2E8C
:100D400008C08C3621F4832D8068382E02C0883686
:100D500041F4F70193FD859193FF81917F0181110A
:100D6000B3CF982F9F7D9554933028F40C5F1F4F7D
:100D70009FE399830DC0833631F0833771F083355B
:100D800009F055C020C0F801808189830E5F1F4F94
:100D900088248394912C530112C02801F2E04F0E55
:100DA000511CF801A080B18036FE03C0692D70E0AF
:100DB00002C06FEF7FEFC50138D14C018201F32DE6
:100DC000FF773F2E15C0280122E0420E511CF8018A
:100DD000A080B18036FE03C0692D70E002C06FEFC5
:100DE0007FEFC50117D14C01F32DF0683F2E820132
:100DF00033FC19C0822D90E088169906A0F4B60144
:100E000080E290E01DD12A94F5CFF50137FC859161
:100E100037FE81915F01B60190E012D121102A9432
:100E200021E0821A91088114910479F7E1C0843697
:100E300011F0893639F5F80137FE07C060817181FC
:100E4000828193810C5F1F4F08C060817181072EE2
:100E5000000C880B990B0E5F1F4FF32DFF763F2E72
:100E600097FF09C090958095709561957F4F8F4F42
:100E70009F4FF0683F2E2AE030E0A3011DD1882E5D
:100E8000861844C0853731F4232D2F7EB22E2AE0F8
:100E900030E025C0932D997FB92E8F36C1F018F41C
:100EA000883579F0AEC0803719F0883721F0A9C0B5
:100EB000E92FE061BE2EB4FE0DC0FB2DF460BF2E05
:100EC00009C034FE0AC0292F2660B22E06C028E0D1
:100ED00030E005C020E130E002C020E132E0F8015E
:100EE000B7FE07C060817181828193810C5F1F4FC3
:100EF00006C06081718180E090E00E5F1F4FA3010A
:100F0000DBD0882E8618FB2DFF773F2E36FE0DC0D6
:100F1000232D2E7FA22E891458F434FE0BC032FCF0
:100F200009C0832D8E7EA82E05C0B82CA32C03C02B
:100F3000B82C01C0B92CA4FE0FC0FE01E80DF11DB4
:100F40008081803321F49A2D997EA92E09C0A2FEBA
:100F500006C0B394B39404C08A2D867809F0B39484
:100F6000A3FC10C0A0FE06C0B21480F4280C922C82
:100F70009B180DC0B21458F4B60180E290E060D026
:100F8000B394F8CFB21418F42B1802C0982C212C6B
:100F9000A4FE0FC0B60180E390E052D0A2FE16C0BE
:100FA000A1FC03C088E790E002C088E590E0B601AC
:100FB0000CC08A2D867851F0A1FE02C08BE201C0E0
:100FC00080E2A7FC8DE2B60190E03AD0891430F4BB
:100FD000B60180E390E034D09A94F8CF8A94F3017C
:100FE000E80DF11D8081B60190E02AD08110F6CF86
:100FF000222009F44ECEB60180E290E021D02A945E
:10100000F7CFF6018681978102C08FEF9FEF2B9675
:10101000E2E1CCC0FC010590615070400110D8F7AE
:10102000809590958E0F9F1F0895FC016150704030
:1010300001900110D8F7809590958E0F9F1F08950D
:101040000F931F93CF93DF93FB01238121FD03C0F7
:101050008FEF9FEF2CC022FF16C04681578124815D
:1010600035814217530744F4A081B1819D012F5F60
:101070003F4F318320838C93268137812F5F3F4FF1
:101080003783268314C08B01EC01FB010084F185BA
:10109000E02D0995892BE1F6D80116968D919C914A
:1010A0001797019617969C938E931697CE01DF9112
:1010B000CF911F910F910895FA01AA27283051F17D
:1010C000203181F1E8946F936E7F6E5F7F4F8F4F79
:1010D0009F4FAF4FB1E03ED0B4E03CD0670F781FD8
:1010E000891F9A1FA11D680F791F8A1F911DA11DBD
:1010F0006A0F711D811D911DA11D20D009F46894F6
:101100003F912AE0269F11243019305D3193DEF69D
:10111000CF010895462F4770405D4193B3E00FD053
:10112000C9F7F6CF462F4F70405D4A3318F0495D3E
:1011300031FD4052419302D0A9F7EACFB4E0A69521
:101140009795879577956795BA95C9F70097610543
:10115000710508959B01AC010A2E06945795479599
:1011600037952795BA95C9F7620F731F841F951F8E
:10117000A01D08952F923F924F925F926F927F929F
:101180008F929F92AF92BF92CF92DF92EF92FF9297
:101190000F931F93CF93DF93CDB7DEB7CA1BDB0B43
:1011A0000FB6F894DEBF0FBECDBF09942A883988E8
:1011B00048885F846E847D848C849B84AA84B984EF
:1011C000C884DF80EE80FD800C811B81AA81B981FB
:1011D000CE0FD11D0FB6F894DEBF0FBECDBFED010F
:0611E0000895F894FFCF12
:1011E60005000300030003000200030003000100E2
:1011F60001000000000300000000D302F20200001C
:101206006164633A20256C640D0A002A72696E6770
:101216002A0A0025660054656D70657261747572E0
:10122600653A2025730D0A002D2D2D2D2D204465A0
:101236006661756C742074657374696E67202D2DF4
:101246002D2D2D0D0053656E736F722049443A2083
:10125600307825780D0A0053656E736F7220496EDB
:10126600697469616C697A65640D0053656E736FA4
:101276007220696E697469616C697A6174696F6EEE
:0A128600206661696C6564210D00AB
:00000001FF
