S0130000626D653238305F746573742E7372656324
S113000033C000004CC000004AC0000048C00000DB
S113001046C0000044C0000042C0000040C00000D0
S11300203EC000003CC000003AC0000038C00000E0
S113003036C0000034C0000032C0000030C00000F0
S11300402EC000002CC000002AC0000028C0000000
S113005026C0000024C0000022C0000020C0000010
S11300601EC000001CC0000011241FBECFEFD8E04A
S1130070DEBFCDBF12E0A0E0B1E0E4EBFFE002C0E0
S113008005900D92A635B107D9F722E0A6E5B2E0B6
S113009001C01D92A13DB207E1F7ABD389C7B0CF30
S11300A004C06150710981099109611571058105C7
S11300B09105B9F708958EBD00000DB407FEFDCF7C
S11300C08EB50895CF93C82F20E041E060E271EA35
S11300D087E090E0ACD12A988C2F8068ECDF80E038
S11300E0EADF2A9ACF91089583EFECDF817090E0E4
S11300F00895CF93DF93D82FC62F20E041E060E22C
S113010071EA87E090E093D12A988D2F8F77D3DF1F
S11301108C2FD1DF2A9ADF91CF910895CF93DF936B
S1130120C82F20E041E060E271EA87E090E07FD1EF
S11301302A988C2F8068BFDF80E0BDDFD82F80E055
S1130140BADFC82F2A9A55D18C2F90E09D2BDF91CE
S1130150CF910895E3DF9827892798270895CF93AF
S1130160DF9388E8F7DFCAEAD2E0998388838AE8D4
S1130170F1DF9B838A838CE8EDDF9D838C83898107
S11301808F9388818F938EE091E09F938F93E7D331
S11301908B818F938A818F9383E391E09F938F93D5
S11301A0DED38D818F938C818F9387E591E09F932C
S11301B08F93D5D38DB79EB70C960FB6F8949EBF88
S11301C00FBE8DBFDF91CF910895CF93DF9380ED64
S11301D079DFC82F1F928F938DE791E09F938F93C0
S11301E0BED30F900F900F900F90C036C9F466EBFA
S11301F080EE7FDF63E876E080E090E051DF05C0C9
S11302006BE171E480E090E04BDF6EDFEC0101977D
S1130210B9F7A5DF66E372E880E090E041DF02C051
S1130220C0E0D0E0CE01DF91CF910895CF92DF926C
S1130230EF92FF92CF93C82F20E041E060E271EA91
S113024087E090E0F4D02A988C2F806834DF80E037
S113025032DFC82ED12CE12CF12CFE2CED2CDC2C21
S1130260CC2480E028DFC82AFE2CED2CDC2CCC2406
S113027080E021DFC82A2A9ABCD0C701B601CF91F9
S1130280FF90EF90DF90CF9008958F929F92AF925E
S1130290BF92CF92DF92EF92FF928AEFC7DF6B019A
S11302A07C01C114D10480E8E806F10409F486C095
S11302B0D701C601689413F8B595A79597958795C6
S11302C01694D1F7BF93AF939F938F938FE891E0E8
S11302D09F938F9344D3EAEAF2E080819181A0E076
S11302E0B0E08D2C9E2CAF2CBB24A7FCBA94881AAA
S11302F0990AAA0ABB0AB701A601689416F875956B
S11303006795579547951694D1F7880F991FAA1F9B
S1130310BB1F9A01AB01281B390B4A0B5B0BA28153
S1130320B381B4D26B017C010B2EBBE0F594E7944E
S1130330D794C794BA95D1F7B02DA5019401C501FE
S1130340B4016FD29B01AC01012E1CE05595479579
S1130350379527951A95D1F7102DA481B58196D29A
S1130360DC01CB01072E7EE0B595A795979587957F
S11303707A95D1F7702D8C0D9D1DAE1DBF1D6C019E
S11303807D01CC0CDD1CEE1CFF1CCC0CDD1CEE1C1A
S1130390FF1C8C0D9D1DAE1DBF1D80589F4FAF4F80
S11303A0BF4F0F900F900F900F900F900F90692FE9
S11303B07A2F8B2F992787FD9A9503C06FEF7FEFD4
S11303C0CB01FF90EF90DF90CF90BF90AF909F90C4
S11303D08F9008952A9A229A8CB580618CBD8CB531
S11303E080648CBD259A239A10925702109256026B
S11303F008958091560290915702009739F0019721
S11304009093570280935602892B19F48CB58F7BF5
S11304108CBD089587E0089591E089272CB5982F25
S113042096959370922B9CBD81708DBD0895CF934A
S1130430DF93862FD42FC22F9CB590649CBD9CB5AE
S113044090619CBDE7DFE8DF8CB52C2F2C70282B46
S11304502CBD8CB5DD2311F090E001C090E2892B16
S11304608CBD809156029091570201969093570249
S113047080935602DF91CF910895CF93C82F873090
S113048061F42091CF023091D00247E050E061E066
S113049070E08AE991E031D20BC08A3011F48DE02A
S11304A0ECDFE0ECF0E0808185FFFDCFC093C60077
S11304B080E090E0CF9108956F927F928F929F9207
S11304C0AF92BF92CF92DF92EF92FF920F931F935E
S11304D0CF93DF932091A8023091A902232B09F036
S11304E0CCC08C010F2EF8E58F2EF2E09F2EF02D5C
S11304F0C0ECD0E00F2EF6ECCF2ED12CF02D540111
S11305000F2EF7E56F2EF2E07F2EF02D88818823E1
S1130510ECF7888184FDC4C0888183FDC4C0F601E2
S113052080818D3011F08A3061F48AE0F401808397
S1130530B801A3DF88E592E09093A9028093A80212
S11305409CC0893039F090EE980F9F3520F0803AA6
S1130550A8F001C080E2F7EA8F16F2E09F0621F4CA
S1130560B80187E08ADFD2CF74019FEFE91AF90A54
S1130570F4018083B80181DF4701C8CF8231B9F12A
S113058030F4833009F492C08830E9F0BFCF87316A
S113059029F08F37C1F0853179F0B8CFF8E58F169F
S11305A0F2E09F0609F008F4B1CFF401319780819D
S11305B0803209F04AC0AACF88E5881682E09806FE
S11305C009F070F5A3CF98E5891692E0990609F031
S11305D008F49CCFB80188E050DFB80180E24DDF19
S11305E0B80188E04ADFE1E08E1A91088FCFB801A4
S11305F08DE043DFF8E58F16F2E09F0609F008F47A
S113060085CF0F2EF8E5EF2EF2E0FF2EF02DB80186
S1130610F70181917F0131DF8E149F04C1F776CFFA
S1130620B80188E02ADFB80180E227DFB80188E05A
S113063024DFF1E08F1A910888E5881682E0980695
S113064079F7F30131964F0161CF7401F1E0EF1AAC
S1130650F108B80188E011DFB80180E20EDFB801CB
S113066088E00BDF4701AE14BF0409F44FCFF70154
S113067082917F01803269F749CFE091A802F0911D
S1130680A902CF0101969093A9028093A8028081C8
S11306908A3021F41092A9021092A80290E008C0B6
S11306A08EEF9FEF05C08FEF9FEF02C08FEF9FEF9C
S11306B0DF91CF911F910F91FF90EF90DF90CF903A
S11306C0BF90AF909F908F907F906F9008951092FD
S11306D0C50080E18093C40088E18093C10086E076
S11306E08093C200EBECF2E080E091E091838083A0
S11306F093838283089595B184B180628F7784B99E
S1130700892F806A85B9089504C0615071098109EF
S113071091096115710581059105B9F708958F92C5
S11307209F92AF92BF92CF92DF92EF92FF920F937C
S11307301F93CF93DF9300D000D000D0CDB7DEB7A6
S1130740A4DD6B017C016F3F2FEF720782079207D4
S113075039F482EA91E016D18EEB91E013D136C0E0
S11307600F2EF4E68F2E912CA12CB12CF02DA50187
S1130770940166D09F938F937F936F93A701960103
S1130780261B370B480B590BCA01B901A50194016B
S113079057D05F934F933F932F938CEE91E09F93A9
S11307A08F931F9286E08F938E010F5F1F4F1F93CD
S11307B00F9318D11F930F9384EF91E09F938F931E
S11307C0CED00FB6F894DEBF0FBECDBF26960FB6BF
S11307D0F894DEBF0FBECDBFDF91CF911F910F9173
S11307E0FF90EF90DF90CF90BF90AF909F908F904D
S11307F0089581DF6CDFEEDD86E092E0C3D0E5DCB6
S1130800019721F483E292E0BDD004C087E392E033
S1130810B9D0FFCF84DF6BE67EE689E190E074DF38
S1130820F9CFDB018F939F9327D0BF91AF91A29F04
S1130830800D911DA39F900DB29F900D11240895DA
S1130840052E97FB16F400940FD057FD05D024D045
S113085007FC02D046F408C0509540953095219588
S11308603F4F4F4F5F4F08959095809570956195D8
S11308707F4F8F4F9F4F089531D0A59F900DB49F08
S1130880900DA49F800D911D11240895B7FFF4CFFE
S1130890F3DF821B930B0895A1E21A2EAA1BBB1B44
S11308A0FD010DC0AA1FBB1FEE1FFF1FA217B30738
S11308B0E407F50720F0A21BB30BE40BF50B661F4E
S11308C0771F881F991F1A9469F760957095809512
S11308D090959B01AC01BD01CF010895A29FB00189
S11308E0B39FC001A39F700D811D1124911DB29F60
S11308F0700D811D1124911D0895A0E0B0E0E2E87F
S1130900F4E025C35B014A017901D90113962C91C6
S113091021FF1DC0C0E0D0E0C815D905D9F08C0175
S11309206C01CA0CDB1CC8010C151D0571F00F5FAE
S11309301F4FD7011896ED91FC911997B701DC016F
S11309408C910995892B79F305C02196E5CF80E038
S113095090E001C0CE01CDB7DEB7ECE014C3A0E057
S1130960B0E0E4EBF4E0FDC2AE014B5F5F4FFA018F
S113097061917191AF018091CD029091CE025FD0CF
S1130980E2E00BC30F931F93CF93DF93E091CD026B
S1130990F091CE02238121FF1BC08C01D0E0C0E086
S11309A0F80181918F016091CD027091CE02DB013B
S11309B01896ED91FC911997882331F00995892BAC
S11309C079F3DFEFCFEFECCF8AE00995892B19F0AB
S11309D08FEF9FEF02C08D2F9C2FDF91CF911F913E
S11309E00F910895AEE0B0E0E7EFF4E0B8C20D89EE
S11309F01E898F89988D26E02C831A83098397FF9B
S1130A0002C080E090E801979E838D83AE01455E2D
S1130A105F4F698D7A8DCE01019611D04D815E8133
S1130A2057FD0AC02F813885421753070CF49A01E9
S1130A30F801E20FF31F10822E96E4E0ACC2ABE0A3
S1130A40B0E0E4E2F5E07DC26C017B018A01FC01C7
S1130A5017821682838181FFBFC1CE0101963C01BA
S1130A60F6019381F70193FD859193FF81917F01B5
S1130A70882309F4ADC1853239F493FD859193FF40
S1130A8081917F01853221F4B60190E0C0D1E8CF95
S1130A90912C212C312CFFE1F315D8F08B3279F015
S1130AA038F4803279F08332A1F4232D20611DC003
S1130AB08D3261F0803369F4232D216016C0832DBB
S1130AC08260382EE32DE4603E2E2AC0F32DF860B8
S1130AD01DC037FC2DC020ED280F2A3040F08E3287
S1130AE0B9F436FC75C1232D2064322E19C036FEAC
S1130AF006C08AE0989E200D1124922E11C0EAE0CF
S1130B002E9E200D1124222EF32DF0623F2E08C0BC
S1130B108C3621F4832D8068382E02C0883641F447
S1130B20F70193FD859193FF81917F018111B3CFEB
S1130B30982F9F7D9554933028F40C5F1F4F9FE3AB
S1130B4099830DC0833631F0833771F0833509F012
S1130B5055C020C0F801808189830E5F1F4F88240F
S1130B608394912C530112C02801F2E04F0E511CC2
S1130B70F801A080B18036FE03C0692D70E002C088
S1130B806FEF7FEFC50138D14C018201F32DFF7760
S1130B903F2E15C0280122E0420E511CF801A0800E
S1130BA0B18036FE03C0692D70E002C06FEF7FEFA5
S1130BB0C50117D14C01F32DF0683F2E820133FC9F
S1130BC019C0822D90E088169906A0F4B60180E23F
S1130BD090E01DD12A94F5CFF50137FC859137FEBD
S1130BE081915F01B60190E012D121102A9421E095
S1130BF0821A91088114910479F7E1C0843611F0C6
S1130C00893639F5F80137FE07C060817181828128
S1130C1093810C5F1F4F08C060817181072E000C07
S1130C20880B990B0E5F1F4FF32DFF763F2E97FF16
S1130C3009C090958095709561957F4F8F4F9F4F18
S1130C40F0683F2E2AE030E0A3011DD1882E8618DB
S1130C5044C0853731F4232D2F7EB22E2AE030E0B4
S1130C6025C0932D997FB92E8F36C1F018F488359D
S1130C7079F0AEC0803719F0883721F0A9C0E92F88
S1130C80E061BE2EB4FE0DC0FB2DF460BF2E09C082
S1130C9034FE0AC0292F2660B22E06C028E030E0B8
S1130CA005C020E130E002C020E132E0F801B7FEE7
S1130CB007C060817181828193810C5F1F4F06C0E0
S1130CC06081718180E090E00E5F1F4FA301DBD053
S1130CD0882E8618FB2DFF773F2E36FE0DC0232D60
S1130CE02E7FA22E891458F434FE0BC032FC09C0A6
S1130CF0832D8E7EA82E05C0B82CA32C03C0B82C3F
S1130D0001C0B92CA4FE0FC0FE01E80DF11D8081C5
S1130D10803321F49A2D997EA92E09C0A2FE06C023
S1130D20B394B39404C08A2D867809F0B394A3FCD9
S1130D3010C0A0FE06C0B21480F4280C922C9B189C
S1130D400DC0B21458F4B60180E290E060D0B394C0
S1130D50F8CFB21418F42B1802C0982C212CA4FE3E
S1130D600FC0B60180E390E052D0A2FE16C0A1FCF1
S1130D7003C088E790E002C088E590E0B6010CC0AB
S1130D808A2D867851F0A1FE02C08BE201C080E278
S1130D90A7FC8DE2B60190E03AD0891430F4B60194
S1130DA080E390E034D09A94F8CF8A94F301E80D6C
S1130DB0F11D8081B60190E02AD08110F6CF222067
S1130DC009F44ECEB60180E290E021D02A94F7CF08
S1130DD0F6018681978102C08FEF9FEF2B96E2E1A7
S1130DE0CCC0FC010590615070400110D8F780958B
S1130DF090958E0F9F1F0895FC01615070400190E3
S1130E000110D8F7809590958E0F9F1F08950F932A
S1130E101F93CF93DF93FB01238121FD03C08FEF49
S1130E209FEF2CC022FF16C0468157812481358153
S1130E304217530744F4A081B1819D012F5F3F4FB6
S1130E40318320838C93268137812F5F3F4F3783F3
S1130E50268314C08B01EC01FB010084F185E02D95
S1130E600995892BE1F6D80116968D919C911797D7
S1130E70019617969C938E931697CE01DF91CF918E
S1130E801F910F910895FA01AA27283051F12031BA
S1130E9081F1E8946F936E7F6E5F7F4F8F4F9F4F0A
S1130EA0AF4FB1E03ED0B4E03CD0670F781F891F4C
S1130EB09A1FA11D680F791F8A1F911DA11D6A0F1A
S1130EC0711D811D911DA11D20D009F468943F91CD
S1130ED02AE0269F11243019305D3193DEF6CF01CC
S1130EE00895462F4770405D4193B3E00FD0C9F792
S1130EF0F6CF462F4F70405D4A3318F0495D31FDFF
S1130F004052419302D0A9F7EACFB4E0A695979551
S1130F10879577956795BA95C9F700976105710527
S1130F2008959B01AC010A2E069457954795379571
S1130F302795BA95C9F7620F731F841F951FA01DCB
S1130F4008952F923F924F925F926F927F928F9269
S1130F509F92AF92BF92CF92DF92EF92FF920F9344
S1130F601F93CF93DF93CDB7DEB7CA1BDB0B0FB64E
S1130F70F894DEBF0FBECDBF09942A88398848880B
S1130F805F846E847D848C849B84AA84B984C884A1
S1130F90DF80EE80FD800C811B81AA81B981CE0F98
S1130FA0D11D0FB6F894DEBF0FBECDBFED0108957D
S1070FB0F894FFCFDF
S1130FB400000003000000003D025C0200000D0874
S1130FC46D653238305F63616C69625F646174615A
S1130FD45F726561642E6469675F54313A202564E5
S1130FE40D0A00626D653238305F63616C69625F5B
S1130FF4646174615F726561642E6469675F54320D
S11310043A2025640D0A00626D653238305F6361ED
S11310146C69625F646174615F726561642E6469A2
S1131024675F54333A2025640D0A0D0A0053656E34
S1131034736F722049443A20307825780D0A006190
S113104464633A20256C640D0A002A72696E672A67
S11310540A0054656D7065726174757265207265F9
S11310646164696E67206572726F72210D00596F35
S113107475206E65656420746F20656E61626C65AD
S11310842074656D7065726174757265206D656137
S1131094737572656D656E740D0A0D00256C642E8E
S11310A4256C640054656D70657261747572653A7B
S11310B42025730D0A002D2D2D2D2D2044656661E8
S11310C4756C742074657374696E67202D2D2D2DD1
S11310D42D0D0053656E736F7220496E69746961D6
S11310E46C697A65640D0053656E736F7220696E62
S11310F4697469616C697A6174696F6E2066616987
S10911046C6564210D007E
S9030000FC
